:1000000045C0000060C000005EC000005CC0000091
:100010005AC0000058C0000056C0000054C0000084
:1000200052C0000050C000004EC000004CC0000094
:100030004AC0000048C0000046C0000044C00000A4
:1000400042C0000040C000003EC000003CC00000B4
:100050003AC0000038C0000036C0000034C00000C4
:1000600032C0000030C000002EC000002CC00000D4
:100070002AC0000028C0000026C0000024C00000E4
:1000800022C0000020C000001EC0000011241FBEBE
:10009000CFEFD0E1DEBFCDBF11E0A0E0B1E0E0EFF7
:1000A000F5E000E00BBF02C007900D92A030B10751
:1000B000D9F721E0A0E0B1E001C01D92A233B20760
:1000C000E1F70AD093C29CCF8DE78DB988E287BB58
:1000D000BC9881E58DB908958FEF81BB12BAF4DF2A
:1000E0000F2EF5E1EF2EF1E0FF2EF02DCC24C3947E
:1000F000D12CF6D087EE93E00197F1F700C0000015
:10010000F701838190E0809590959093050180930D
:100110000401848190E08095909590932F018093C5
:100120002E01C581D0E0C095D095D0930301C09336
:1001300002016680712C609470947092010160924B
:100140000001A780B12CA094B094B0922D01A09290
:100150002C01008510E0009510951093310100935B
:100160003001AA9CC001AB9C900D900D11249923E5
:1001700004F4AA9CC001AB9C900D900D112499230E
:100180000CF4019695958795B601681B790B072E9F
:10019000000C880B990BE4D0AED14B015C01B80187
:1001A000110F880B990BDCD0A50194013DD1A5D08E
:1001B0008B0170932B0160932A01CC9FC001CD9FCE
:1001C000900D900D1124992304F4CC9FC001CD9F74
:1001D000900D900D112499230CF401969595879517
:1001E000B601681B790B072E000C880B990BB8D051
:1001F00082D14B015C01B301770C880B990BB0D015
:10020000A501940111D179D070930B0160930A017B
:100210000F3711052CF4909A9198929A93980FC0E9
:10022000003811052CF0919A9098939A929807C0F3
:100230000F37110521F49098919892989398809196
:100240000A0190910B018F3791052CF4949A95989F
:10025000969A97980FC0803891052CF0959A9498AB
:10026000979A969807C08F37910521F4949895989E
:1002700096989798FFEF29E688E1F150204080405A
:10028000E1F700C0000035CF8FB9779BFECF80E546
:100290008A95F1F78FB10895CF92DF92EF92FF9296
:1002A0000F931F93CF93DF93662389F07C016C013A
:1002B000C60ED11CEC018E010E191F098991E4DFD5
:1002C000F801EB5EFE4F8083CC15DD05A1F7DF91D1
:1002D000CF911F910F91FF90EF90DF90CF900895F5
:1002E000C29869E08CE091E0D7DFC29A8FE99FE085
:1002F0000197F1F700C00000089504D06894B1118F
:100300008DC0089570D088F09F5790F0B92F99272D
:10031000B751A0F0D1F0660F771F881F991F1AF010
:10032000BA95C9F712C0B13081F077D0B1E0089525
:1003300074C0672F782F8827B85F39F0B93FCCF3A6
:10034000869577956795B395D9F73EF49095809506
:10035000709561957F4F8F4F9F4F0895E89409C026
:1003600097FB3EF490958095709561957F4F8F4FE8
:100370009F4F9923A9F0F92F96E9BB279395F695FE
:10038000879577956795B795F111F8CFFAF4BB0F7C
:1003900011F460FF1BC06F5F7F4F8F4F9F4F16C0E0
:1003A000882311F096E911C0772321F09EE8872F6A
:1003B000762F05C0662371F096E8862F70E060E026
:1003C0002AF09A95660F771F881FDAF7880F96959F
:1003D000879597F9089557FD9058440F551F59F088
:1003E0005F3F71F04795880F97FB991F61F09F3F22
:1003F00079F087950895121613061406551FF2CF4B
:100400004695F1DF08C0161617061806991FF1CF9A
:1004100086957105610508940895E894BB276627C1
:100420007727CB0197F908950BD0CFC0C0D028F023
:10043000C5D018F0952309F09CC0AFC01124EECFB1
:10044000CADFA0F3959FD1F3950F50E0551F629F2F
:10045000F001729FBB27F00DB11D639FAA27F00D1D
:10046000B11DAA1F649F6627B00DA11D661F829F44
:100470002227B00DA11D621F739FB00DA11D621F29
:10048000839FA00D611D221F749F3327A00D611D46
:10049000231F849F600D211D822F762F6A2F112428
:1004A0009F5750408AF0E1F088234AF0EE0FFF1F7B
:1004B000BB1F661F771F881F91505040A9F79E3FB2
:1004C000510570F056C0AACF5F3FECF3983EDCF3C5
:1004D000869577956795B795F795E7959F5FC1F7EF
:1004E000FE2B880F911D9695879597F9089511F425
:1004F0000EF453C044C077DFD0F39923D9F3CEF381
:100500009F57550B87FF4CD00024A0E640EA90018E
:1005100080585695979528F4805C660F771F881F42
:1005200020F026173707480730F4621B730B840B43
:10053000202931294A2BA695179407942025312587
:100540004A2758F7660F771F881F20F026173707AE
:10055000480730F4620B730B840B200D311D411DD5
:10056000A09581F7B901842F9158880F96958795AA
:10057000089597F99F6780E870E060E008959F3FD5
:1005800031F0915020F4879577956795B795880F4E
:10059000911D9695879597F908959FEF80EC0895A2
:1005A00091505040660F771F881FD2F7089500249E
:1005B0000A941616170618060906089500240A94C8
:1005C00012161306140605060895092E0394000C4E
:1005D00011F4882352F0BB0F40F4BF2B11F460FFDD
:1005E00004C06F5F7F4F8F4F9F4F0895F894FFCFE8
:00000001FF
